:020000040000FA
:1000000000000420A10400009104000099040000F5
:100010009104000091040000910400000000000021
:10002000000000000000000000000000910400003B
:100030009104000000000000910400009104000001
:10004000910400009104000091040000910400005C
:10005000910400009104000091040000910400004C
:100060009104000091040000000000000000000066
:100070000000000000000000000000000000000080
:100080000000000000000000000000000000000070
:100090000000000000000000000000000000000060
:1000A0000000000000000000000000000000000050
:1003C00000F002F800F043F814A696E8000CB244DE
:1003D000B344DA4501D100F03AF8BAE80F000FA6AD
:1003E00096E83000A5EB040504EB0607AAEB07042A
:1003F000A7F101074FEA15154FEA3414A4F10104DF
:10040000AC4201D300F023F813F0010F18BFFB1A20
:1004100043F0010300F001F8DBE71847E8000000B3
:10042000F8000000103A24BF78C878C1FAD8520703
:1004300024BF30C830C144BF04680C60704700005E
:1004400070471FB500F051F81FBD10B510BDDFF8A3
:1004500010D0FFF7F6FF00F043F800F009F80000B5
:100460000000042003B4FFF7F0FF03BC00F00AF81B
:1004700010B50446AFF300802046BDE81040FFF7FA
:10048000F1BF704701491820ABBEFEE7260002000D
:10049000FFE7FEE700000000FFE7FEE700000000C6
:1004A00000F002F8FFF78CFF40F20000C0F20000FD
:1004B0004EF60851CEF2000108604EF68851CEF299
:1004C0000001086840F47000086040F20001C2F2C8
:1004D000000147F64000C0F27D1008607047000040
:1004E00081B000200090FFE7FEE7F1EE100A4FF622
:1004F000FF71C0F2C03120EA010040F04070E1EE2F
:10050000100A7047140500000000002004000000DD
:080510002404000040787D0185
:04000005000004A152
:00000001FF
